:1000000012C017C016C015C014C013C013C011C051
:1000100010C00FC00EC00DC00CC00BC00AC009C07C
:1000200008C007C006C011241FBECFEDCDBF14D03D
:100030001BC0E6CF1F920F920FB60F9211248F9321
:100040009F9382B398E0892782BB9F918F910F90F5
:100050000FBE0F901F90189585E083BF82E089BF87
:0C00600088E081BB7894FFCFF894FFCFBC
:10006C00040000001400000003000000474E55007F
:10007C00D6EB48C8F2A4191FB5A5FD13CB6CBDE592
:04008C0076F8EF080B
:00000001FF
