:1000000012C067C129C028C027C026C059C024C05B
:1000100023C022C021C020C01FC01EC01DC01CC0E4
:100020001BC01AC019C011241FBECFEDCDBF10E0F8
:10003000A0E6B0E0ECE7F3E002C005900D92A83630
:10004000B107D9F720E0A8E6B0E001C01D92A037C3
:10005000B207E1F762D190C1D3CF82B398E089278C
:1000600082BB089582B383FB882780F90895939A11
:1000700008959398089580B382FB882780F991E0D2
:1000800089270895949A86E0809368000895949A49
:10009000959A86E080936800089582B38F7C82BB36
:1000A0000895882359F080916D008F5F80936D00D3
:1000B000853029F4D2DF10926D000895CECF0895D7
:1000C0001F920F920FB60F9211242F933F934F93CD
:1000D0005F936F937F938F939F93AF93BF93CF93D0
:1000E000EF93FF9380916E0090916F0082309105A5
:1000F00009F4A2C008F040C0009709F457C0019766
:1001000009F464C080916800882341F08091680000
:10011000815080936800811101C0BFDF8091690028
:1001200090916A00019690936A008093690081150E
:10013000984081F419BE13BE9CDF80E48BBF85B765
:10014000806585BF85B7806285BF7894889585B7BF
:100150008F7D85BFFF91EF91CF91BF91AF919F911F
:100160008F917F916F915F914F913F912F910F9060
:100170000FBE0F901F9018958330910591F0059751
:1001800009F0C0CF80916C008F5F80936C00873046
:1001900010F463DFB7CF8C3009F0B4CF10926C004D
:1001A000B1CF60DF91E089277CDFACCF56DF63DF22
:1001B000882309F4A7CF10926A001092690081E0A9
:1001C00090E090936F0080936E009CCF46DF53DFEA
:1001D0002091690030916A003695279536952795CC
:1001E00041E0232B09F440E091E0982781E0491396
:1001F00080E090916000890F8093600020916900F9
:1002000030916A002031310509F07CCF8C3078F0D4
:1002100082E090E090936F0080936E0028DF81E091
:100220008093600010926A00109269006BCF109268
:100230006F0010926E00F3CF15DF33DF80916800FE
:10024000811160CF18DF882381F010926A0010922C
:100250006900C0916B00CC2331F014DF81E0C82726
:10026000C0936B004FCF13DFF9CF8091690090915D
:100270006A008138910508F445CF10926F00109202
:100280006E0040CF0ADF88E381BB82E089BF85E052
:1002900083BF1BBE089586B382FB882780F908952B
:1002A000FADF882369F08CE697E090936A008093E8
:1002B000690083E090E090936F0080936E00089552
:1002C00010926F0010926E0010926A0010926900F6
:1002D00008951F920F920FB60F9211242F933F9300
:1002E0004F935F936F937F938F939F93AF93BF933E
:1002F000EF93FF93C7DFD4DFFF91EF91BF91AF91F1
:100300009F918F917F916F915F914F913F912F912D
:100310000F900FBE0F901F901895B4DF04B602FE29
:1003200029C084B794E0892784BF8CE697E0909336
:100330006A008093690085E090E090936F0080935D
:100340006E00789404E010E0CCE6D7E0A4DF8823C8
:10035000E9F380916E0090916F00892BB9F71093AB
:100360006F0000936E00D0936A00C09369007FDE37
:0C03700089DEECCF95DFE5CFF894FFCFDD
:08037C00016C0700088000007D
:10038400040000001400000003000000474E550064
:10039400FE3BE3DD17D8CB7C4BE8383FBB0E2A0E7F
:0403A40084698046A2
:00000001FF
